{"_format":"hh-sol-artifact-1","contractName":"UnirepApp","sourceName":"contracts/UnirepApp.sol","abi":[{"inputs":[{"internalType":"contract Unirep","name":"_unirep","type":"address"},{"internalType":"uint256","name":"_epochLength","type":"uint256"}],"stateMutability":"nonpayable","type":"constructor"},{"inputs":[{"internalType":"uint256","name":"epochKey","type":"uint256"},{"internalType":"uint256","name":"targetEpoch","type":"uint256"},{"internalType":"uint256","name":"fieldIndex","type":"uint256"},{"internalType":"uint256","name":"val","type":"uint256"}],"name":"submitAttestation","outputs":[],"stateMutability":"nonpayable","type":"function"},{"inputs":[{"internalType":"uint256","name":"epochKey","type":"uint256"},{"internalType":"uint256","name":"targetEpoch","type":"uint256"},{"internalType":"uint256[]","name":"fieldIndices","type":"uint256[]"},{"internalType":"uint256[]","name":"vals","type":"uint256[]"}],"name":"submitManyAttestations","outputs":[],"stateMutability":"nonpayable","type":"function"},{"inputs":[],"name":"unirep","outputs":[{"internalType":"contract Unirep","name":"","type":"address"}],"stateMutability":"view","type":"function"},{"inputs":[{"internalType":"uint256[]","name":"publicSignals","type":"uint256[]"},{"internalType":"uint256[8]","name":"proof","type":"uint256[8]"}],"name":"userSignUp","outputs":[],"stateMutability":"nonpayable","type":"function"}],"bytecode":"0x608060405234801561001057600080fd5b506040516106ff3803806106ff83398101604081905261002f916100a3565b600080546001600160a01b0319166001600160a01b038416908117909155604051632e4ec57d60e11b815260048101839052635c9d8afa90602401600060405180830381600087803b15801561008457600080fd5b505af1158015610098573d6000803e3d6000fd5b5050505050506100dd565b600080604083850312156100b657600080fd5b82516001600160a01b03811681146100cd57600080fd5b6020939093015192949293505050565b610613806100ec6000396000f3fe608060405234801561001057600080fd5b506004361061004c5760003560e01c80630efbb9bc146100515780634144f051146100665780637e6a60a914610079578063f85ec78f1461008c575b600080fd5b61006461005f366004610305565b6100bb565b005b61006461007436600461043d565b6101d8565b6100646100873660046104f7565b610240565b60005461009f906001600160a01b031681565b6040516001600160a01b03909116815260200160405180910390f35b8281146100fc5760405162461bcd60e51b815260206004820152600b60248201526a0c2e4e4dad2e6dac2e8c6d60ab1b604482015260640160405180910390fd5b60005b60ff81168411156101cf576000546001600160a01b031663a65a2e4a8888888860ff871681811061013257610132610529565b9050602002013587878760ff1681811061014e5761014e610529565b905060200201356040518563ffffffff1660e01b815260040161018a949392919093845260208401929092526040830152606082015260800190565b600060405180830381600087803b1580156101a457600080fd5b505af11580156101b8573d6000803e3d6000fd5b5050505080806101c79061053f565b9150506100ff565b50505050505050565b600054604051634144f05160e01b81526001600160a01b0390911690634144f0519061020a908590859060040161056c565b600060405180830381600087803b15801561022457600080fd5b505af1158015610238573d6000803e3d6000fd5b505050505050565b60005460405163532d172560e11b8152600481018690526024810185905260448101849052606481018390526001600160a01b039091169063a65a2e4a90608401600060405180830381600087803b15801561029b57600080fd5b505af11580156102af573d6000803e3d6000fd5b5050505050505050565b60008083601f8401126102cb57600080fd5b50813567ffffffffffffffff8111156102e357600080fd5b6020830191508360208260051b85010111156102fe57600080fd5b9250929050565b6000806000806000806080878903121561031e57600080fd5b8635955060208701359450604087013567ffffffffffffffff8082111561034457600080fd5b6103508a838b016102b9565b9096509450606089013591508082111561036957600080fd5b5061037689828a016102b9565b979a9699509497509295939492505050565b634e487b7160e01b600052604160045260246000fd5b604051601f8201601f1916810167ffffffffffffffff811182821017156103c7576103c7610388565b604052919050565b600082601f8301126103e057600080fd5b60405161010080820182811067ffffffffffffffff8211171561040557610405610388565b6040528301818582111561041857600080fd5b845b8281101561043257803582526020918201910161041a565b509195945050505050565b600080610120838503121561045157600080fd5b823567ffffffffffffffff8082111561046957600080fd5b818501915085601f83011261047d57600080fd5b813560208282111561049157610491610388565b8160051b92506104a281840161039e565b82815292840181019281810190898511156104bc57600080fd5b948201945b848610156104da578535825294820194908201906104c1565b96506104ea9050888883016103cf565b9450505050509250929050565b6000806000806080858703121561050d57600080fd5b5050823594602084013594506040840135936060013592509050565b634e487b7160e01b600052603260045260246000fd5b600060ff821660ff810361056357634e487b7160e01b600052601160045260246000fd5b60010192915050565b6101208082528351908201819052600090610140830190602090818701845b828110156105a75781518552938301939083019060010161058b565b509293505083810191508460005b60088110156105d2578151845292820192908201906001016105b5565b50505050939250505056fea2646970667358221220e7e1d9ead4664cdddb0a5d1c171cd738290a71deb99f7247a3076a439fd1d16964736f6c63430008110033","linkReferences":{},"deployedLinkReferences":{}}