{"_format":"hh-sol-artifact-1","contractName":"UnirepApp","sourceName":"contracts/UnirepApp.sol","abi":[{"inputs":[{"internalType":"contract Unirep","name":"_unirep","type":"address"},{"internalType":"uint256","name":"_epochLength","type":"uint256"}],"stateMutability":"nonpayable","type":"constructor"},{"inputs":[{"internalType":"uint256","name":"targetEpoch","type":"uint256"},{"internalType":"uint256","name":"epochKey","type":"uint256"},{"internalType":"uint256","name":"posRep","type":"uint256"},{"internalType":"uint256","name":"negRep","type":"uint256"},{"internalType":"uint256","name":"graffiti","type":"uint256"}],"name":"submitAttestation","outputs":[],"stateMutability":"nonpayable","type":"function"},{"inputs":[],"name":"unirep","outputs":[{"internalType":"contract Unirep","name":"","type":"address"}],"stateMutability":"view","type":"function"},{"inputs":[{"internalType":"uint256[]","name":"publicSignals","type":"uint256[]"},{"internalType":"uint256[8]","name":"proof","type":"uint256[8]"}],"name":"userSignUp","outputs":[],"stateMutability":"nonpayable","type":"function"}],"bytecode":"0x608060405234801561001057600080fd5b506040516104c33803806104c383398101604081905261002f916100a3565b600080546001600160a01b0319166001600160a01b038416908117909155604051632e4ec57d60e11b815260048101839052635c9d8afa90602401600060405180830381600087803b15801561008457600080fd5b505af1158015610098573d6000803e3d6000fd5b5050505050506100dd565b600080604083850312156100b657600080fd5b82516001600160a01b03811681146100cd57600080fd5b6020939093015192949293505050565b6103d7806100ec6000396000f3fe608060405234801561001057600080fd5b50600436106100415760003560e01c80634144f05114610046578063b4d7b9e31461005b578063f85ec78f1461006e575b600080fd5b61005961005436600461023b565b61009d565b005b6100596100693660046102f5565b610105565b600054610081906001600160a01b031681565b6040516001600160a01b03909116815260200160405180910390f35b600054604051634144f05160e01b81526001600160a01b0390911690634144f051906100cf9085908590600401610330565b600060405180830381600087803b1580156100e957600080fd5b505af11580156100fd573d6000803e3d6000fd5b505050505050565b60005460405163b4d7b9e360e01b815260048101879052602481018690526044810185905260648101849052608481018390526001600160a01b039091169063b4d7b9e39060a401600060405180830381600087803b15801561016757600080fd5b505af115801561017b573d6000803e3d6000fd5b505050505050505050565b634e487b7160e01b600052604160045260246000fd5b604051601f8201601f1916810167ffffffffffffffff811182821017156101c5576101c5610186565b604052919050565b600082601f8301126101de57600080fd5b60405161010080820182811067ffffffffffffffff8211171561020357610203610186565b6040528301818582111561021657600080fd5b845b82811015610230578035825260209182019101610218565b509195945050505050565b600080610120838503121561024f57600080fd5b823567ffffffffffffffff8082111561026757600080fd5b818501915085601f83011261027b57600080fd5b813560208282111561028f5761028f610186565b8160051b92506102a081840161019c565b82815292840181019281810190898511156102ba57600080fd5b948201945b848610156102d8578535825294820194908201906102bf565b96506102e89050888883016101cd565b9450505050509250929050565b600080600080600060a0868803121561030d57600080fd5b505083359560208501359550604085013594606081013594506080013592509050565b6101208082528351908201819052600090610140830190602090818701845b8281101561036b5781518552938301939083019060010161034f565b509293505083810191508460005b600881101561039657815184529282019290820190600101610379565b50505050939250505056fea2646970667358221220a2c88cf8daf2f76f2d148d51b4e96d230debfcbbd26d104981765dabe9cd476264736f6c63430008110033","linkReferences":{},"deployedLinkReferences":{}}